{
  "_format": "hh-sol-artifact-1",
  "contractName": "TKN_test",
  "sourceName": "contracts/TKN_test.sol",
  "abi": [
    {
      "inputs": [
        {
          "internalType": "address",
          "name": "_stakingToken",
          "type": "address"
        },
        {
          "internalType": "address",
          "name": "_rewardingToken",
          "type": "address"
        }
      ],
      "stateMutability": "nonpayable",
      "type": "constructor"
    },
    {
      "anonymous": false,
      "inputs": [
        {
          "indexed": true,
          "internalType": "address",
          "name": "previousOwner",
          "type": "address"
        },
        {
          "indexed": true,
          "internalType": "address",
          "name": "newOwner",
          "type": "address"
        }
      ],
      "name": "OwnershipTransferred",
      "type": "event"
    },
    {
      "inputs": [
        {
          "internalType": "address",
          "name": "",
          "type": "address"
        }
      ],
      "name": "Stakers",
      "outputs": [
        {
          "internalType": "uint256",
          "name": "totalStakedTokenUser",
          "type": "uint256"
        },
        {
          "internalType": "uint256",
          "name": "totalUnstakedTokenUser",
          "type": "uint256"
        },
        {
          "internalType": "uint256",
          "name": "totalClaimedRewardTokenUser",
          "type": "uint256"
        },
        {
          "internalType": "uint256",
          "name": "stakeCount",
          "type": "uint256"
        },
        {
          "internalType": "bool",
          "name": "alreadyExists",
          "type": "bool"
        }
      ],
      "stateMutability": "view",
      "type": "function"
    },
    {
      "inputs": [
        {
          "internalType": "uint256",
          "name": "",
          "type": "uint256"
        }
      ],
      "name": "StakersID",
      "outputs": [
        {
          "internalType": "address",
          "name": "",
          "type": "address"
        }
      ],
      "stateMutability": "view",
      "type": "function"
    },
    {
      "inputs": [
        {
          "internalType": "uint256",
          "name": "_amount",
          "type": "uint256"
        }
      ],
      "name": "claim",
      "outputs": [],
      "stateMutability": "nonpayable",
      "type": "function"
    },
    {
      "inputs": [],
      "name": "duration",
      "outputs": [
        {
          "internalType": "uint256",
          "name": "",
          "type": "uint256"
        }
      ],
      "stateMutability": "view",
      "type": "function"
    },
    {
      "inputs": [
        {
          "internalType": "uint256",
          "name": "_index",
          "type": "uint256"
        }
      ],
      "name": "getIndexStaker",
      "outputs": [
        {
          "internalType": "address",
          "name": "",
          "type": "address"
        }
      ],
      "stateMutability": "view",
      "type": "function"
    },
    {
      "inputs": [
        {
          "internalType": "address",
          "name": "_index",
          "type": "address"
        }
      ],
      "name": "getIndexStakerStakeCount",
      "outputs": [
        {
          "internalType": "uint256",
          "name": "",
          "type": "uint256"
        }
      ],
      "stateMutability": "view",
      "type": "function"
    },
    {
      "inputs": [
        {
          "internalType": "address",
          "name": "_index",
          "type": "address"
        }
      ],
      "name": "getIndexStakerUnstakedToken",
      "outputs": [
        {
          "internalType": "uint256",
          "name": "",
          "type": "uint256"
        }
      ],
      "stateMutability": "view",
      "type": "function"
    },
    {
      "inputs": [
        {
          "internalType": "address",
          "name": "user",
          "type": "address"
        }
      ],
      "name": "getMaxUncliamedAmount",
      "outputs": [
        {
          "internalType": "uint256",
          "name": "",
          "type": "uint256"
        }
      ],
      "stateMutability": "view",
      "type": "function"
    },
    {
      "inputs": [
        {
          "internalType": "address",
          "name": "user",
          "type": "address"
        }
      ],
      "name": "getMaxUnstakeAmount",
      "outputs": [
        {
          "internalType": "uint256",
          "name": "",
          "type": "uint256"
        }
      ],
      "stateMutability": "view",
      "type": "function"
    },
    {
      "inputs": [],
      "name": "maxStakeableToken",
      "outputs": [
        {
          "internalType": "uint256",
          "name": "",
          "type": "uint256"
        }
      ],
      "stateMutability": "view",
      "type": "function"
    },
    {
      "inputs": [],
      "name": "minStakeableToken",
      "outputs": [
        {
          "internalType": "uint256",
          "name": "",
          "type": "uint256"
        }
      ],
      "stateMutability": "view",
      "type": "function"
    },
    {
      "inputs": [],
      "name": "owner",
      "outputs": [
        {
          "internalType": "address",
          "name": "",
          "type": "address"
        }
      ],
      "stateMutability": "view",
      "type": "function"
    },
    {
      "inputs": [],
      "name": "percentDivider",
      "outputs": [
        {
          "internalType": "uint256",
          "name": "",
          "type": "uint256"
        }
      ],
      "stateMutability": "view",
      "type": "function"
    },
    {
      "inputs": [],
      "name": "renounceOwnership",
      "outputs": [],
      "stateMutability": "nonpayable",
      "type": "function"
    },
    {
      "inputs": [],
      "name": "rewardToken",
      "outputs": [
        {
          "internalType": "contract ERC20",
          "name": "",
          "type": "address"
        }
      ],
      "stateMutability": "view",
      "type": "function"
    },
    {
      "inputs": [
        {
          "internalType": "uint256",
          "name": "_duration",
          "type": "uint256"
        }
      ],
      "name": "setStakeDuration",
      "outputs": [],
      "stateMutability": "nonpayable",
      "type": "function"
    },
    {
      "inputs": [
        {
          "internalType": "uint256",
          "name": "_min",
          "type": "uint256"
        },
        {
          "internalType": "uint256",
          "name": "_max",
          "type": "uint256"
        }
      ],
      "name": "setStakeLimits",
      "outputs": [],
      "stateMutability": "nonpayable",
      "type": "function"
    },
    {
      "inputs": [
        {
          "internalType": "uint256",
          "name": "_amount",
          "type": "uint256"
        }
      ],
      "name": "stake",
      "outputs": [],
      "stateMutability": "nonpayable",
      "type": "function"
    },
    {
      "inputs": [],
      "name": "stakeToken",
      "outputs": [
        {
          "internalType": "contract ERC20",
          "name": "",
          "type": "address"
        }
      ],
      "stateMutability": "view",
      "type": "function"
    },
    {
      "inputs": [
        {
          "internalType": "address",
          "name": "",
          "type": "address"
        },
        {
          "internalType": "uint256",
          "name": "",
          "type": "uint256"
        }
      ],
      "name": "stakersRecord",
      "outputs": [
        {
          "internalType": "uint256",
          "name": "unstakeTime",
          "type": "uint256"
        },
        {
          "internalType": "uint256",
          "name": "stakeTime",
          "type": "uint256"
        },
        {
          "internalType": "uint256",
          "name": "amount",
          "type": "uint256"
        },
        {
          "internalType": "uint256",
          "name": "reward",
          "type": "uint256"
        },
        {
          "internalType": "uint256",
          "name": "availableUnstakedAmount",
          "type": "uint256"
        },
        {
          "internalType": "uint256",
          "name": "availableUnclaimedReward",
          "type": "uint256"
        },
        {
          "internalType": "bool",
          "name": "withdrawn",
          "type": "bool"
        },
        {
          "internalType": "bool",
          "name": "unstaked",
          "type": "bool"
        }
      ],
      "stateMutability": "view",
      "type": "function"
    },
    {
      "inputs": [],
      "name": "totalClaimedRewardToken",
      "outputs": [
        {
          "internalType": "uint256",
          "name": "",
          "type": "uint256"
        }
      ],
      "stateMutability": "view",
      "type": "function"
    },
    {
      "inputs": [],
      "name": "totalStakedToken",
      "outputs": [
        {
          "internalType": "uint256",
          "name": "",
          "type": "uint256"
        }
      ],
      "stateMutability": "view",
      "type": "function"
    },
    {
      "inputs": [],
      "name": "totalStakers",
      "outputs": [
        {
          "internalType": "uint256",
          "name": "",
          "type": "uint256"
        }
      ],
      "stateMutability": "view",
      "type": "function"
    },
    {
      "inputs": [],
      "name": "totalUnStakedToken",
      "outputs": [
        {
          "internalType": "uint256",
          "name": "",
          "type": "uint256"
        }
      ],
      "stateMutability": "view",
      "type": "function"
    },
    {
      "inputs": [
        {
          "internalType": "address",
          "name": "newOwner",
          "type": "address"
        }
      ],
      "name": "transferOwnership",
      "outputs": [],
      "stateMutability": "nonpayable",
      "type": "function"
    },
    {
      "inputs": [
        {
          "internalType": "uint256",
          "name": "_amount",
          "type": "uint256"
        }
      ],
      "name": "unstake",
      "outputs": [],
      "stateMutability": "nonpayable",
      "type": "function"
    }
  ],
  "bytecode": "0x60806040526014600a553480156200001657600080fd5b5060405162002a5138038062002a5183398181016040528101906200003c91906200029f565b6200005c62000050620001a560201b60201c565b620001ad60201b60201c565b81600160006101000a81548173ffffffffffffffffffffffffffffffffffffffff021916908373ffffffffffffffffffffffffffffffffffffffff16021790555080600260006101000a81548173ffffffffffffffffffffffffffffffffffffffff021916908373ffffffffffffffffffffffffffffffffffffffff160217905550600160009054906101000a900473ffffffffffffffffffffffffffffffffffffffff1673ffffffffffffffffffffffffffffffffffffffff166318160ddd6040518163ffffffff1660e01b815260040160206040518083038186803b1580156200014757600080fd5b505afa1580156200015c573d6000803e3d6000fd5b505050506040513d601f19601f82011682018060405250810190620001829190620002e0565b6003819055506509184e72a000600481905550606460098190555050506200037e565b600033905090565b60008060009054906101000a900473ffffffffffffffffffffffffffffffffffffffff169050816000806101000a81548173ffffffffffffffffffffffffffffffffffffffff021916908373ffffffffffffffffffffffffffffffffffffffff1602179055508173ffffffffffffffffffffffffffffffffffffffff168173ffffffffffffffffffffffffffffffffffffffff167f8be0079c531659141344cd1fd0a4f28419497f9722a3daafe3b4186f6b6457e060405160405180910390a35050565b60008151905062000282816200034a565b92915050565b600081519050620002998162000364565b92915050565b60008060408385031215620002b357600080fd5b6000620002c38582860162000271565b9250506020620002d68582860162000271565b9150509250929050565b600060208284031215620002f357600080fd5b6000620003038482850162000288565b91505092915050565b6000620003198262000320565b9050919050565b600073ffffffffffffffffffffffffffffffffffffffff82169050919050565b6000819050919050565b62000355816200030c565b81146200036157600080fd5b50565b6200036f8162000340565b81146200037b57600080fd5b50565b6126c3806200038e6000396000f3fe608060405234801561001057600080fd5b506004361061018e5760003560e01c8063a694fc3a116100de578063cb6d8ee611610097578063f2fde38b11610071578063f2fde38b146104a6578063f7c618c1146104c2578063f978be1a146104e0578063fe6f1b05146104fc5761018e565b8063cb6d8ee614610436578063d287de4e14610454578063ede85eb7146104725761018e565b8063a694fc3a1461034e578063b067354d1461036a578063b10be8af14610388578063c0372838146103b8578063c1f5ee38146103d6578063c942e6ef146104065761018e565b8063649493571161014b578063886f2fae11610125578063886f2fae146102bf5780638c9bd1b5146102dd5780638da5cb5b146102f95780639845db70146103175761018e565b80636494935714610267578063715018a61461029757806386989038146102a15761018e565b80630fb5a6b4146101935780632e17de78146101b1578063379607f5146101cd578063492ffa93146101e957806351b35ab31461021957806351ed6a3014610249575b600080fd5b61019b61051a565b6040516101a8919061237d565b60405180910390f35b6101cb60048036038101906101c69190611ff4565b610520565b005b6101e760048036038101906101e29190611ff4565b610a52565b005b61020360048036038101906101fe9190611f66565b610f84565b604051610210919061237d565b60405180910390f35b610233600480360381019061022e9190611f66565b61111b565b604051610240919061237d565b60405180910390f35b610251611167565b60405161025e91906122c2565b60405180910390f35b610281600480360381019061027c9190611ff4565b61118d565b60405161028e9190612247565b60405180910390f35b61029f6111c0565b005b6102a9611248565b6040516102b6919061237d565b60405180910390f35b6102c761124e565b6040516102d4919061237d565b60405180910390f35b6102f760048036038101906102f2919061201d565b611254565b005b6103016112e2565b60405161030e9190612247565b60405180910390f35b610331600480360381019061032c9190611f8f565b61130b565b6040516103459897969594939291906123eb565b60405180910390f35b61036860048036038101906103639190611ff4565b61137a565b005b610372611a0a565b60405161037f919061237d565b60405180910390f35b6103a2600480360381019061039d9190611f66565b611a10565b6040516103af919061237d565b60405180910390f35b6103c0611ba7565b6040516103cd919061237d565b60405180910390f35b6103f060048036038101906103eb9190611f66565b611bad565b6040516103fd919061237d565b60405180910390f35b610420600480360381019061041b9190611ff4565b611bf9565b60405161042d9190612247565b60405180910390f35b61043e611c36565b60405161044b919061237d565b60405180910390f35b61045c611c3c565b604051610469919061237d565b60405180910390f35b61048c60048036038101906104879190611f66565b611c42565b60405161049d959493929190612398565b60405180910390f35b6104c060048036038101906104bb9190611f66565b611c85565b005b6104ca611d7d565b6040516104d791906122c2565b60405180910390f35b6104fa60048036038101906104f59190611ff4565b611da3565b005b610504611e29565b604051610511919061237d565b60405180910390f35b600a5481565b61052933611a10565b81111561056b576040517f08c379a00000000000000000000000000000000000000000000000000000000081526004016105629061235d565b60405180910390fd5b600081905060005b600b60003373ffffffffffffffffffffffffffffffffffffffff1673ffffffffffffffffffffffffffffffffffffffff168152602001908152602001600020600301548110156108e757600d60003373ffffffffffffffffffffffffffffffffffffffff1673ffffffffffffffffffffffffffffffffffffffff168152602001908152602001600020600082815260200190815260200160002060060160019054906101000a900460ff16806106295750600083145b15610633576108d4565b42600d60003373ffffffffffffffffffffffffffffffffffffffff1673ffffffffffffffffffffffffffffffffffffffff16815260200190815260200160002060008381526020019081526020016000206000015410610692576108d4565b82600d60003373ffffffffffffffffffffffffffffffffffffffff1673ffffffffffffffffffffffffffffffffffffffff16815260200190815260200160002060008381526020019081526020016000206004015411156107ac5782600d60003373ffffffffffffffffffffffffffffffffffffffff1673ffffffffffffffffffffffffffffffffffffffff16815260200190815260200160002060008381526020019081526020016000206004015461074c9190612501565b600d60003373ffffffffffffffffffffffffffffffffffffffff1673ffffffffffffffffffffffffffffffffffffffff168152602001908152602001600020600083815260200190815260200160002060040181905550600092506108d3565b600d60003373ffffffffffffffffffffffffffffffffffffffff1673ffffffffffffffffffffffffffffffffffffffff1681526020019081526020016000206000828152602001908152602001600020600401548361080b9190612501565b92506000600d60003373ffffffffffffffffffffffffffffffffffffffff1673ffffffffffffffffffffffffffffffffffffffff1681526020019081526020016000206000838152602001908152602001600020600401819055506001600d60003373ffffffffffffffffffffffffffffffffffffffff1673ffffffffffffffffffffffffffffffffffffffff168152602001908152602001600020600083815260200190815260200160002060060160016101000a81548160ff0219169083151502179055505b5b80806108df906125a1565b915050610573565b50600160009054906101000a900473ffffffffffffffffffffffffffffffffffffffff1673ffffffffffffffffffffffffffffffffffffffff1663a9059cbb33836040518363ffffffff1660e01b8152600401610945929190612299565b602060405180830381600087803b15801561095f57600080fd5b505af1158015610973573d6000803e3d6000fd5b505050506040513d601f19601f820116820180604052508101906109979190611fcb565b506109ad81600554611e2f90919063ffffffff16565b600581905550610a0881600b60003373ffffffffffffffffffffffffffffffffffffffff1673ffffffffffffffffffffffffffffffffffffffff16815260200190815260200160002060010154611e2f90919063ffffffff16565b600b60003373ffffffffffffffffffffffffffffffffffffffff1673ffffffffffffffffffffffffffffffffffffffff168152602001908152602001600020600101819055505050565b610a5b33610f84565b811115610a9d576040517f08c379a0000000000000000000000000000000000000000000000000000000008152600401610a94906122fd565b60405180910390fd5b600081905060005b600b60003373ffffffffffffffffffffffffffffffffffffffff1673ffffffffffffffffffffffffffffffffffffffff16815260200190815260200160002060030154811015610e1957600d60003373ffffffffffffffffffffffffffffffffffffffff1673ffffffffffffffffffffffffffffffffffffffff168152602001908152602001600020600082815260200190815260200160002060060160009054906101000a900460ff1680610b5b5750600083145b15610b6557610e06565b42600d60003373ffffffffffffffffffffffffffffffffffffffff1673ffffffffffffffffffffffffffffffffffffffff16815260200190815260200160002060008381526020019081526020016000206000015410610bc457610e06565b82600d60003373ffffffffffffffffffffffffffffffffffffffff1673ffffffffffffffffffffffffffffffffffffffff1681526020019081526020016000206000838152602001908152602001600020600501541115610cde5782600d60003373ffffffffffffffffffffffffffffffffffffffff1673ffffffffffffffffffffffffffffffffffffffff168152602001908152602001600020600083815260200190815260200160002060050154610c7e9190612501565b600d60003373ffffffffffffffffffffffffffffffffffffffff1673ffffffffffffffffffffffffffffffffffffffff16815260200190815260200160002060008381526020019081526020016000206005018190555060009250610e05565b600d60003373ffffffffffffffffffffffffffffffffffffffff1673ffffffffffffffffffffffffffffffffffffffff16815260200190815260200160002060008281526020019081526020016000206005015483610d3d9190612501565b92506000600d60003373ffffffffffffffffffffffffffffffffffffffff1673ffffffffffffffffffffffffffffffffffffffff1681526020019081526020016000206000838152602001908152602001600020600501819055506001600d60003373ffffffffffffffffffffffffffffffffffffffff1673ffffffffffffffffffffffffffffffffffffffff168152602001908152602001600020600083815260200190815260200160002060060160006101000a81548160ff0219169083151502179055505b5b8080610e11906125a1565b915050610aa5565b50600260009054906101000a900473ffffffffffffffffffffffffffffffffffffffff1673ffffffffffffffffffffffffffffffffffffffff1663a9059cbb33836040518363ffffffff1660e01b8152600401610e77929190612299565b602060405180830381600087803b158015610e9157600080fd5b505af1158015610ea5573d6000803e3d6000fd5b505050506040513d601f19601f82011682018060405250810190610ec99190611fcb565b50610edf81600754611e2f90919063ffffffff16565b600781905550610f3a81600b60003373ffffffffffffffffffffffffffffffffffffffff1673ffffffffffffffffffffffffffffffffffffffff16815260200190815260200160002060020154611e2f90919063ffffffff16565b600b60003373ffffffffffffffffffffffffffffffffffffffff1673ffffffffffffffffffffffffffffffffffffffff168152602001908152602001600020600201819055505050565b60008060005b600b60008573ffffffffffffffffffffffffffffffffffffffff1673ffffffffffffffffffffffffffffffffffffffff1681526020019081526020016000206003015481101561111157600d60008573ffffffffffffffffffffffffffffffffffffffff1673ffffffffffffffffffffffffffffffffffffffff168152602001908152602001600020600082815260200190815260200160002060060160009054906101000a900460ff166110fe5742600d60008673ffffffffffffffffffffffffffffffffffffffff1673ffffffffffffffffffffffffffffffffffffffff16815260200190815260200160002060008381526020019081526020016000206000015410156110fd576110fa600d60008673ffffffffffffffffffffffffffffffffffffffff1673ffffffffffffffffffffffffffffffffffffffff16815260200190815260200160002060008381526020019081526020016000206005015483611e2f90919063ffffffff16565b91505b5b8080611109906125a1565b915050610f8a565b5080915050919050565b6000600b60008373ffffffffffffffffffffffffffffffffffffffff1673ffffffffffffffffffffffffffffffffffffffff168152602001908152602001600020600101549050919050565b600160009054906101000a900473ffffffffffffffffffffffffffffffffffffffff1681565b600c6020528060005260406000206000915054906101000a900473ffffffffffffffffffffffffffffffffffffffff1681565b6111c8611e45565b73ffffffffffffffffffffffffffffffffffffffff166111e66112e2565b73ffffffffffffffffffffffffffffffffffffffff161461123c576040517f08c379a00000000000000000000000000000000000000000000000000000000081526004016112339061233d565b60405180910390fd5b6112466000611e4d565b565b60085481565b60045481565b61125c611e45565b73ffffffffffffffffffffffffffffffffffffffff1661127a6112e2565b73ffffffffffffffffffffffffffffffffffffffff16146112d0576040517f08c379a00000000000000000000000000000000000000000000000000000000081526004016112c79061233d565b60405180910390fd5b81600481905550806003819055505050565b60008060009054906101000a900473ffffffffffffffffffffffffffffffffffffffff16905090565b600d602052816000526040600020602052806000526040600020600091509150508060000154908060010154908060020154908060030154908060040154908060050154908060060160009054906101000a900460ff16908060060160019054906101000a900460ff16905088565b6004548110156113bf576040517f08c379a00000000000000000000000000000000000000000000000000000000081526004016113b69061231d565b60405180910390fd5b600b60003373ffffffffffffffffffffffffffffffffffffffff1673ffffffffffffffffffffffffffffffffffffffff16815260200190815260200160002060040160009054906101000a900460ff166114db576001600b60003373ffffffffffffffffffffffffffffffffffffffff1673ffffffffffffffffffffffffffffffffffffffff16815260200190815260200160002060040160006101000a81548160ff02191690831515021790555033600c6000600854815260200190815260200160002060006101000a81548173ffffffffffffffffffffffffffffffffffffffff021916908373ffffffffffffffffffffffffffffffffffffffff160217905550600860008154809291906114d5906125a1565b91905055505b600160009054906101000a900473ffffffffffffffffffffffffffffffffffffffff1673ffffffffffffffffffffffffffffffffffffffff166323b872dd3330846040518463ffffffff1660e01b815260040161153a93929190612262565b602060405180830381600087803b15801561155457600080fd5b505af1158015611568573d6000803e3d6000fd5b505050506040513d601f19601f8201168201806040525081019061158c9190611fcb565b506000600b60003373ffffffffffffffffffffffffffffffffffffffff1673ffffffffffffffffffffffffffffffffffffffff16815260200190815260200160002060030154905061162982600b60003373ffffffffffffffffffffffffffffffffffffffff1673ffffffffffffffffffffffffffffffffffffffff16815260200190815260200160002060000154611e2f90919063ffffffff16565b600b60003373ffffffffffffffffffffffffffffffffffffffff1673ffffffffffffffffffffffffffffffffffffffff1681526020019081526020016000206000018190555061168482600654611e2f90919063ffffffff16565b60068190555042600d60003373ffffffffffffffffffffffffffffffffffffffff1673ffffffffffffffffffffffffffffffffffffffff1681526020019081526020016000206000838152602001908152602001600020600101819055506116f7600a5442611e2f90919063ffffffff16565b600d60003373ffffffffffffffffffffffffffffffffffffffff1673ffffffffffffffffffffffffffffffffffffffff16815260200190815260200160002060008381526020019081526020016000206000018190555081600d60003373ffffffffffffffffffffffffffffffffffffffff1673ffffffffffffffffffffffffffffffffffffffff1681526020019081526020016000206000838152602001908152602001600020600201819055506117bb60095483611f1190919063ffffffff16565b600d60003373ffffffffffffffffffffffffffffffffffffffff1673ffffffffffffffffffffffffffffffffffffffff16815260200190815260200160002060008381526020019081526020016000206003018190555081600d60003373ffffffffffffffffffffffffffffffffffffffff1673ffffffffffffffffffffffffffffffffffffffff16815260200190815260200160002060008381526020019081526020016000206004018190555061187f60095483611f1190919063ffffffff16565b600d60003373ffffffffffffffffffffffffffffffffffffffff1673ffffffffffffffffffffffffffffffffffffffff1681526020019081526020016000206000838152602001908152602001600020600501819055506000600d60003373ffffffffffffffffffffffffffffffffffffffff1673ffffffffffffffffffffffffffffffffffffffff168152602001908152602001600020600083815260200190815260200160002060060160016101000a81548160ff0219169083151502179055506000600d60003373ffffffffffffffffffffffffffffffffffffffff1673ffffffffffffffffffffffffffffffffffffffff168152602001908152602001600020600083815260200190815260200160002060060160006101000a81548160ff021916908315150217905550600b60003373ffffffffffffffffffffffffffffffffffffffff1673ffffffffffffffffffffffffffffffffffffffff1681526020019081526020016000206003016000815480929190611a01906125a1565b91905055505050565b60035481565b60008060005b600b60008573ffffffffffffffffffffffffffffffffffffffff1673ffffffffffffffffffffffffffffffffffffffff16815260200190815260200160002060030154811015611b9d57600d60008573ffffffffffffffffffffffffffffffffffffffff1673ffffffffffffffffffffffffffffffffffffffff168152602001908152602001600020600082815260200190815260200160002060060160019054906101000a900460ff16611b8a5742600d60008673ffffffffffffffffffffffffffffffffffffffff1673ffffffffffffffffffffffffffffffffffffffff1681526020019081526020016000206000838152602001908152602001600020600001541015611b8957611b86600d60008673ffffffffffffffffffffffffffffffffffffffff1673ffffffffffffffffffffffffffffffffffffffff16815260200190815260200160002060008381526020019081526020016000206004015483611e2f90919063ffffffff16565b91505b5b8080611b95906125a1565b915050611a16565b5080915050919050565b60075481565b6000600b60008373ffffffffffffffffffffffffffffffffffffffff1673ffffffffffffffffffffffffffffffffffffffff168152602001908152602001600020600301549050919050565b6000600c600083815260200190815260200160002060009054906101000a900473ffffffffffffffffffffffffffffffffffffffff169050919050565b60065481565b60055481565b600b6020528060005260406000206000915090508060000154908060010154908060020154908060030154908060040160009054906101000a900460ff16905085565b611c8d611e45565b73ffffffffffffffffffffffffffffffffffffffff16611cab6112e2565b73ffffffffffffffffffffffffffffffffffffffff1614611d01576040517f08c379a0000000000000000000000000000000000000000000000000000000008152600401611cf89061233d565b60405180910390fd5b600073ffffffffffffffffffffffffffffffffffffffff168173ffffffffffffffffffffffffffffffffffffffff161415611d71576040517f08c379a0000000000000000000000000000000000000000000000000000000008152600401611d68906122dd565b60405180910390fd5b611d7a81611e4d565b50565b600260009054906101000a900473ffffffffffffffffffffffffffffffffffffffff1681565b611dab611e45565b73ffffffffffffffffffffffffffffffffffffffff16611dc96112e2565b73ffffffffffffffffffffffffffffffffffffffff1614611e1f576040517f08c379a0000000000000000000000000000000000000000000000000000000008152600401611e169061233d565b60405180910390fd5b80600a8190555050565b60095481565b60008183611e3d919061247a565b905092915050565b600033905090565b60008060009054906101000a900473ffffffffffffffffffffffffffffffffffffffff169050816000806101000a81548173ffffffffffffffffffffffffffffffffffffffff021916908373ffffffffffffffffffffffffffffffffffffffff1602179055508173ffffffffffffffffffffffffffffffffffffffff168173ffffffffffffffffffffffffffffffffffffffff167f8be0079c531659141344cd1fd0a4f28419497f9722a3daafe3b4186f6b6457e060405160405180910390a35050565b60008183611f1f91906124d0565b905092915050565b600081359050611f3681612648565b92915050565b600081519050611f4b8161265f565b92915050565b600081359050611f6081612676565b92915050565b600060208284031215611f7857600080fd5b6000611f8684828501611f27565b91505092915050565b60008060408385031215611fa257600080fd5b6000611fb085828601611f27565b9250506020611fc185828601611f51565b9150509250929050565b600060208284031215611fdd57600080fd5b6000611feb84828501611f3c565b91505092915050565b60006020828403121561200657600080fd5b600061201484828501611f51565b91505092915050565b6000806040838503121561203057600080fd5b600061203e85828601611f51565b925050602061204f85828601611f51565b9150509250929050565b61206281612535565b82525050565b61207181612547565b82525050565b6120808161257d565b82525050565b6000612093602683612469565b91507f4f776e61626c653a206e6577206f776e657220697320746865207a65726f206160008301527f64647265737300000000000000000000000000000000000000000000000000006020830152604082019050919050565b60006120f9603483612469565b91507f616d6f756e74206d757374206265206c657373207468616e20617661696c616260008301527f6c65206d617820636c61696d6564206d6f756e740000000000000000000000006020830152604082019050919050565b600061215f601e83612469565b91507f7374616b65206d6f7265207468616e206d696e696d756d20616d6f756e7400006000830152602082019050919050565b600061219f602083612469565b91507f4f776e61626c653a2063616c6c6572206973206e6f7420746865206f776e65726000830152602082019050919050565b60006121df603583612469565b91507f616d6f756e74206d757374206265206c657373207468616e20617661696c616260008301527f6c65206d617820756e7374616b6520616d6f756e7400000000000000000000006020830152604082019050919050565b61224181612573565b82525050565b600060208201905061225c6000830184612059565b92915050565b60006060820190506122776000830186612059565b6122846020830185612059565b6122916040830184612238565b949350505050565b60006040820190506122ae6000830185612059565b6122bb6020830184612238565b9392505050565b60006020820190506122d76000830184612077565b92915050565b600060208201905081810360008301526122f681612086565b9050919050565b60006020820190508181036000830152612316816120ec565b9050919050565b6000602082019050818103600083015261233681612152565b9050919050565b6000602082019050818103600083015261235681612192565b9050919050565b60006020820190508181036000830152612376816121d2565b9050919050565b60006020820190506123926000830184612238565b92915050565b600060a0820190506123ad6000830188612238565b6123ba6020830187612238565b6123c76040830186612238565b6123d46060830185612238565b6123e16080830184612068565b9695505050505050565b600061010082019050612401600083018b612238565b61240e602083018a612238565b61241b6040830189612238565b6124286060830188612238565b6124356080830187612238565b61244260a0830186612238565b61244f60c0830185612068565b61245c60e0830184612068565b9998505050505050505050565b600082825260208201905092915050565b600061248582612573565b915061249083612573565b9250827fffffffffffffffffffffffffffffffffffffffffffffffffffffffffffffffff038211156124c5576124c46125ea565b5b828201905092915050565b60006124db82612573565b91506124e683612573565b9250826124f6576124f5612619565b5b828204905092915050565b600061250c82612573565b915061251783612573565b92508282101561252a576125296125ea565b5b828203905092915050565b600061254082612553565b9050919050565b60008115159050919050565b600073ffffffffffffffffffffffffffffffffffffffff82169050919050565b6000819050919050565b60006125888261258f565b9050919050565b600061259a82612553565b9050919050565b60006125ac82612573565b91507fffffffffffffffffffffffffffffffffffffffffffffffffffffffffffffffff8214156125df576125de6125ea565b5b600182019050919050565b7f4e487b7100000000000000000000000000000000000000000000000000000000600052601160045260246000fd5b7f4e487b7100000000000000000000000000000000000000000000000000000000600052601260045260246000fd5b61265181612535565b811461265c57600080fd5b50565b61266881612547565b811461267357600080fd5b50565b61267f81612573565b811461268a57600080fd5b5056fea2646970667358221220c4ec7b523edfbe16c87336e4c4f35328379e0efef8eac965ec75d4454b9716c764736f6c63430008000033",
  "linkReferences": {},
  "deployedLinkReferences": {}
}