{
  "_format": "hh-sol-artifact-1",
  "contractName": "TKN_test",
  "sourceName": "contracts/TKN_test.sol",
  "abi": [
    {
      "inputs": [
        {
          "internalType": "address",
          "name": "_stakingToken",
          "type": "address"
        },
        {
          "internalType": "address",
          "name": "_rewardingToken",
          "type": "address"
        }
      ],
      "stateMutability": "nonpayable",
      "type": "constructor"
    },
    {
      "anonymous": false,
      "inputs": [
        {
          "indexed": true,
          "internalType": "address",
          "name": "previousOwner",
          "type": "address"
        },
        {
          "indexed": true,
          "internalType": "address",
          "name": "newOwner",
          "type": "address"
        }
      ],
      "name": "OwnershipTransferred",
      "type": "event"
    },
    {
      "inputs": [
        {
          "internalType": "address",
          "name": "",
          "type": "address"
        }
      ],
      "name": "Stakers",
      "outputs": [
        {
          "internalType": "uint256",
          "name": "totalStakedToken",
          "type": "uint256"
        },
        {
          "internalType": "uint256",
          "name": "totalUnstakedToken",
          "type": "uint256"
        },
        {
          "internalType": "uint256",
          "name": "totalClaimedRewardToken",
          "type": "uint256"
        },
        {
          "internalType": "uint256",
          "name": "stakeCount",
          "type": "uint256"
        },
        {
          "internalType": "bool",
          "name": "alreadyExists",
          "type": "bool"
        }
      ],
      "stateMutability": "view",
      "type": "function"
    },
    {
      "inputs": [
        {
          "internalType": "uint256",
          "name": "",
          "type": "uint256"
        }
      ],
      "name": "StakersID",
      "outputs": [
        {
          "internalType": "address",
          "name": "",
          "type": "address"
        }
      ],
      "stateMutability": "view",
      "type": "function"
    },
    {
      "inputs": [
        {
          "internalType": "uint256",
          "name": "_amount",
          "type": "uint256"
        }
      ],
      "name": "claim",
      "outputs": [],
      "stateMutability": "nonpayable",
      "type": "function"
    },
    {
      "inputs": [],
      "name": "duration",
      "outputs": [
        {
          "internalType": "uint256",
          "name": "",
          "type": "uint256"
        }
      ],
      "stateMutability": "view",
      "type": "function"
    },
    {
      "inputs": [
        {
          "internalType": "uint256",
          "name": "_index",
          "type": "uint256"
        }
      ],
      "name": "getIndexStaker",
      "outputs": [
        {
          "internalType": "address",
          "name": "",
          "type": "address"
        }
      ],
      "stateMutability": "view",
      "type": "function"
    },
    {
      "inputs": [
        {
          "internalType": "address",
          "name": "_index",
          "type": "address"
        }
      ],
      "name": "getIndexStakerUnstakedToken",
      "outputs": [
        {
          "internalType": "uint256",
          "name": "",
          "type": "uint256"
        }
      ],
      "stateMutability": "view",
      "type": "function"
    },
    {
      "inputs": [
        {
          "internalType": "address",
          "name": "_caller",
          "type": "address"
        }
      ],
      "name": "getMaxUnclaimedAmount",
      "outputs": [
        {
          "internalType": "uint256",
          "name": "",
          "type": "uint256"
        }
      ],
      "stateMutability": "view",
      "type": "function"
    },
    {
      "inputs": [
        {
          "internalType": "address",
          "name": "_caller",
          "type": "address"
        }
      ],
      "name": "getMaxUnstakeableAmount",
      "outputs": [
        {
          "internalType": "uint256",
          "name": "",
          "type": "uint256"
        }
      ],
      "stateMutability": "view",
      "type": "function"
    },
    {
      "inputs": [
        {
          "internalType": "uint256",
          "name": "_amount",
          "type": "uint256"
        }
      ],
      "name": "getReward",
      "outputs": [
        {
          "internalType": "uint256",
          "name": "",
          "type": "uint256"
        }
      ],
      "stateMutability": "view",
      "type": "function"
    },
    {
      "inputs": [],
      "name": "getTimeStamp",
      "outputs": [
        {
          "internalType": "uint256",
          "name": "",
          "type": "uint256"
        }
      ],
      "stateMutability": "view",
      "type": "function"
    },
    {
      "inputs": [],
      "name": "maxStakeableToken",
      "outputs": [
        {
          "internalType": "uint256",
          "name": "",
          "type": "uint256"
        }
      ],
      "stateMutability": "view",
      "type": "function"
    },
    {
      "inputs": [],
      "name": "minStakeableToken",
      "outputs": [
        {
          "internalType": "uint256",
          "name": "",
          "type": "uint256"
        }
      ],
      "stateMutability": "view",
      "type": "function"
    },
    {
      "inputs": [],
      "name": "owner",
      "outputs": [
        {
          "internalType": "address",
          "name": "",
          "type": "address"
        }
      ],
      "stateMutability": "view",
      "type": "function"
    },
    {
      "inputs": [],
      "name": "percentDivider",
      "outputs": [
        {
          "internalType": "uint256",
          "name": "",
          "type": "uint256"
        }
      ],
      "stateMutability": "view",
      "type": "function"
    },
    {
      "inputs": [],
      "name": "renounceOwnership",
      "outputs": [],
      "stateMutability": "nonpayable",
      "type": "function"
    },
    {
      "inputs": [],
      "name": "rewardToken",
      "outputs": [
        {
          "internalType": "contract ERC20",
          "name": "",
          "type": "address"
        }
      ],
      "stateMutability": "view",
      "type": "function"
    },
    {
      "inputs": [
        {
          "internalType": "uint256",
          "name": "_percentDivider",
          "type": "uint256"
        }
      ],
      "name": "setPercentDivider",
      "outputs": [],
      "stateMutability": "nonpayable",
      "type": "function"
    },
    {
      "inputs": [
        {
          "internalType": "uint256",
          "name": "_duration",
          "type": "uint256"
        }
      ],
      "name": "setStakeDuration",
      "outputs": [],
      "stateMutability": "nonpayable",
      "type": "function"
    },
    {
      "inputs": [
        {
          "internalType": "uint256",
          "name": "_min",
          "type": "uint256"
        },
        {
          "internalType": "uint256",
          "name": "_max",
          "type": "uint256"
        }
      ],
      "name": "setStakeLimits",
      "outputs": [],
      "stateMutability": "nonpayable",
      "type": "function"
    },
    {
      "inputs": [
        {
          "internalType": "uint256",
          "name": "_amount",
          "type": "uint256"
        }
      ],
      "name": "stake",
      "outputs": [],
      "stateMutability": "nonpayable",
      "type": "function"
    },
    {
      "inputs": [],
      "name": "stakeToken",
      "outputs": [
        {
          "internalType": "contract ERC20",
          "name": "",
          "type": "address"
        }
      ],
      "stateMutability": "view",
      "type": "function"
    },
    {
      "inputs": [
        {
          "internalType": "address",
          "name": "",
          "type": "address"
        },
        {
          "internalType": "uint256",
          "name": "",
          "type": "uint256"
        }
      ],
      "name": "stakersRecord",
      "outputs": [
        {
          "internalType": "uint256",
          "name": "unstakeTime",
          "type": "uint256"
        },
        {
          "internalType": "uint256",
          "name": "stakeTime",
          "type": "uint256"
        },
        {
          "internalType": "uint256",
          "name": "amount",
          "type": "uint256"
        },
        {
          "internalType": "uint256",
          "name": "reward",
          "type": "uint256"
        },
        {
          "internalType": "uint256",
          "name": "availableUnstakeAmount",
          "type": "uint256"
        },
        {
          "internalType": "uint256",
          "name": "availableUnClaimedReward",
          "type": "uint256"
        },
        {
          "internalType": "bool",
          "name": "withdrawn",
          "type": "bool"
        },
        {
          "internalType": "bool",
          "name": "unstaked",
          "type": "bool"
        }
      ],
      "stateMutability": "view",
      "type": "function"
    },
    {
      "inputs": [],
      "name": "totalClaimedRewardToken",
      "outputs": [
        {
          "internalType": "uint256",
          "name": "",
          "type": "uint256"
        }
      ],
      "stateMutability": "view",
      "type": "function"
    },
    {
      "inputs": [],
      "name": "totalStakedToken",
      "outputs": [
        {
          "internalType": "uint256",
          "name": "",
          "type": "uint256"
        }
      ],
      "stateMutability": "view",
      "type": "function"
    },
    {
      "inputs": [],
      "name": "totalStakers",
      "outputs": [
        {
          "internalType": "uint256",
          "name": "",
          "type": "uint256"
        }
      ],
      "stateMutability": "view",
      "type": "function"
    },
    {
      "inputs": [],
      "name": "totalUnstakedToken",
      "outputs": [
        {
          "internalType": "uint256",
          "name": "",
          "type": "uint256"
        }
      ],
      "stateMutability": "view",
      "type": "function"
    },
    {
      "inputs": [
        {
          "internalType": "address",
          "name": "newOwner",
          "type": "address"
        }
      ],
      "name": "transferOwnership",
      "outputs": [],
      "stateMutability": "nonpayable",
      "type": "function"
    },
    {
      "inputs": [
        {
          "internalType": "uint256",
          "name": "_amount",
          "type": "uint256"
        }
      ],
      "name": "unstake",
      "outputs": [],
      "stateMutability": "nonpayable",
      "type": "function"
    }
  ],
  "bytecode": "0x60806040526001600060146101000a81548160ff0219169083151502179055506014600d553480156200003157600080fd5b5060405162002a7238038062002a728339818101604052810190620000579190620002ba565b620000776200006b620001c060201b60201c565b620001c860201b60201c565b81600160006101000a81548173ffffffffffffffffffffffffffffffffffffffff021916908373ffffffffffffffffffffffffffffffffffffffff16021790555080600260006101000a81548173ffffffffffffffffffffffffffffffffffffffff021916908373ffffffffffffffffffffffffffffffffffffffff160217905550600160009054906101000a900473ffffffffffffffffffffffffffffffffffffffff1673ffffffffffffffffffffffffffffffffffffffff166318160ddd6040518163ffffffff1660e01b815260040160206040518083038186803b1580156200016257600080fd5b505afa15801562000177573d6000803e3d6000fd5b505050506040513d601f19601f820116820180604052508101906200019d9190620002fb565b6003819055506509184e72a0006004819055506064600c81905550505062000399565b600033905090565b60008060009054906101000a900473ffffffffffffffffffffffffffffffffffffffff169050816000806101000a81548173ffffffffffffffffffffffffffffffffffffffff021916908373ffffffffffffffffffffffffffffffffffffffff1602179055508173ffffffffffffffffffffffffffffffffffffffff168173ffffffffffffffffffffffffffffffffffffffff167f8be0079c531659141344cd1fd0a4f28419497f9722a3daafe3b4186f6b6457e060405160405180910390a35050565b6000815190506200029d8162000365565b92915050565b600081519050620002b4816200037f565b92915050565b60008060408385031215620002ce57600080fd5b6000620002de858286016200028c565b9250506020620002f1858286016200028c565b9150509250929050565b6000602082840312156200030e57600080fd5b60006200031e84828501620002a3565b91505092915050565b600062000334826200033b565b9050919050565b600073ffffffffffffffffffffffffffffffffffffffff82169050919050565b6000819050919050565b620003708162000327565b81146200037c57600080fd5b50565b6200038a816200035b565b81146200039657600080fd5b50565b6126c980620003a96000396000f3fe608060405234801561001057600080fd5b50600436106101c45760003560e01c80639845db70116100f9578063cb6d8ee611610097578063f2fde38b11610071578063f2fde38b14610516578063f7c618c114610532578063f978be1a14610550578063fe6f1b051461056c576101c4565b8063cb6d8ee6146104a6578063da235b22146104c4578063ede85eb7146104e2576101c4565b8063b067354d116100d3578063b067354d1461040a578063c037283814610428578063c7ca7add14610446578063c942e6ef14610476576101c4565b80639845db7014610387578063a0aaaa41146103be578063a694fc3a146103ee576101c4565b806351ed6a301161016657806386989038116101405780638698903814610311578063886f2fae1461032f5780638c9bd1b51461034d5780638da5cb5b14610369576101c4565b806351ed6a30146102b957806364949357146102d7578063715018a614610307576101c4565b80632a4cc2f0116101a25780632a4cc2f0146102335780632e17de7814610251578063379607f51461026d57806351b35ab314610289576101c4565b80630fab5d31146101c95780630fb5a6b4146101e55780631c4b774b14610203575b600080fd5b6101e360048036038101906101de9190611ffa565b61058a565b005b6101ed610610565b6040516101fa9190612383565b60405180910390f35b61021d60048036038101906102189190611ffa565b610616565b60405161022a9190612383565b60405180910390f35b61023b610634565b6040516102489190612383565b60405180910390f35b61026b60048036038101906102669190611ffa565b61063a565b005b61028760048036038101906102829190611ffa565b610b6b565b005b6102a3600480360381019061029e9190611f6c565b61109c565b6040516102b09190612383565b60405180910390f35b6102c16110e8565b6040516102ce91906122c8565b60405180910390f35b6102f160048036038101906102ec9190611ffa565b61110e565b6040516102fe919061224d565b60405180910390f35b61030f611141565b005b6103196111c9565b6040516103269190612383565b60405180910390f35b6103376111cf565b6040516103449190612383565b60405180910390f35b61036760048036038101906103629190612023565b6111d5565b005b610371611263565b60405161037e919061224d565b60405180910390f35b6103a1600480360381019061039c9190611f95565b61128c565b6040516103b59897969594939291906123f1565b60405180910390f35b6103d860048036038101906103d39190611f6c565b6112fb565b6040516103e59190612383565b60405180910390f35b61040860048036038101906104039190611ffa565b611496565b005b610412611a56565b60405161041f9190612383565b60405180910390f35b610430611a5c565b60405161043d9190612383565b60405180910390f35b610460600480360381019061045b9190611f6c565b611a62565b60405161046d9190612383565b60405180910390f35b610490600480360381019061048b9190611ffa565b611bfd565b60405161049d919061224d565b60405180910390f35b6104ae611c3a565b6040516104bb9190612383565b60405180910390f35b6104cc611c40565b6040516104d99190612383565b60405180910390f35b6104fc60048036038101906104f79190611f6c565b611c48565b60405161050d95949392919061239e565b60405180910390f35b610530600480360381019061052b9190611f6c565b611c8b565b005b61053a611d83565b60405161054791906122c8565b60405180910390f35b61056a60048036038101906105659190611ffa565b611da9565b005b610574611e2f565b6040516105819190612383565b60405180910390f35b610592611e35565b73ffffffffffffffffffffffffffffffffffffffff166105b0611263565b73ffffffffffffffffffffffffffffffffffffffff1614610606576040517f08c379a00000000000000000000000000000000000000000000000000000000081526004016105fd90612323565b60405180910390fd5b80600c8190555050565b600d5481565b600061062d600c5483611e3d90919063ffffffff16565b9050919050565b60055481565b600081905061064833611a62565b8211610689576040517f08c379a000000000000000000000000000000000000000000000000000000000815260040161068090612363565b60405180910390fd5b60005b600960003373ffffffffffffffffffffffffffffffffffffffff1673ffffffffffffffffffffffffffffffffffffffff16815260200190815260200160002060030154811015610a0057600b60003373ffffffffffffffffffffffffffffffffffffffff1673ffffffffffffffffffffffffffffffffffffffff168152602001908152602001600020600082815260200190815260200160002060060160019054906101000a900460ff16806107425750600083145b1561074c576109ed565b42600b60003373ffffffffffffffffffffffffffffffffffffffff1673ffffffffffffffffffffffffffffffffffffffff168152602001908152602001600020600083815260200190815260200160002060000154106107ab576109ed565b82600b60003373ffffffffffffffffffffffffffffffffffffffff1673ffffffffffffffffffffffffffffffffffffffff16815260200190815260200160002060008381526020019081526020016000206004015411156108c55782600b60003373ffffffffffffffffffffffffffffffffffffffff1673ffffffffffffffffffffffffffffffffffffffff1681526020019081526020016000206000838152602001908152602001600020600401546108659190612507565b600b60003373ffffffffffffffffffffffffffffffffffffffff1673ffffffffffffffffffffffffffffffffffffffff168152602001908152602001600020600083815260200190815260200160002060040181905550600092506109ec565b600b60003373ffffffffffffffffffffffffffffffffffffffff1673ffffffffffffffffffffffffffffffffffffffff168152602001908152602001600020600082815260200190815260200160002060040154836109249190612507565b92506000600b60003373ffffffffffffffffffffffffffffffffffffffff1673ffffffffffffffffffffffffffffffffffffffff1681526020019081526020016000206000838152602001908152602001600020600401819055506001600b60003373ffffffffffffffffffffffffffffffffffffffff1673ffffffffffffffffffffffffffffffffffffffff168152602001908152602001600020600083815260200190815260200160002060060160016101000a81548160ff0219169083151502179055505b5b80806109f8906125a7565b91505061068c565b50600160009054906101000a900473ffffffffffffffffffffffffffffffffffffffff1673ffffffffffffffffffffffffffffffffffffffff1663a9059cbb33836040518363ffffffff1660e01b8152600401610a5e92919061229f565b602060405180830381600087803b158015610a7857600080fd5b505af1158015610a8c573d6000803e3d6000fd5b505050506040513d601f19601f82011682018060405250810190610ab09190611fd1565b50610ac681600554611e5390919063ffffffff16565b600581905550610b2181600960003373ffffffffffffffffffffffffffffffffffffffff1673ffffffffffffffffffffffffffffffffffffffff16815260200190815260200160002060010154611e5390919063ffffffff16565b600960003373ffffffffffffffffffffffffffffffffffffffff1673ffffffffffffffffffffffffffffffffffffffff168152602001908152602001600020600101819055505050565b610b74336112fb565b8111610bb5576040517f08c379a0000000000000000000000000000000000000000000000000000000008152600401610bac90612343565b60405180910390fd5b600081905060005b600960003373ffffffffffffffffffffffffffffffffffffffff1673ffffffffffffffffffffffffffffffffffffffff16815260200190815260200160002060030154811015610f3157600b60003373ffffffffffffffffffffffffffffffffffffffff1673ffffffffffffffffffffffffffffffffffffffff168152602001908152602001600020600082815260200190815260200160002060060160009054906101000a900460ff1680610c735750600083145b15610c7d57610f1e565b42600b60003373ffffffffffffffffffffffffffffffffffffffff1673ffffffffffffffffffffffffffffffffffffffff16815260200190815260200160002060008381526020019081526020016000206000015410610cdc57610f1e565b82600b60003373ffffffffffffffffffffffffffffffffffffffff1673ffffffffffffffffffffffffffffffffffffffff1681526020019081526020016000206000838152602001908152602001600020600501541115610df65782600b60003373ffffffffffffffffffffffffffffffffffffffff1673ffffffffffffffffffffffffffffffffffffffff168152602001908152602001600020600083815260200190815260200160002060050154610d969190612507565b600b60003373ffffffffffffffffffffffffffffffffffffffff1673ffffffffffffffffffffffffffffffffffffffff16815260200190815260200160002060008381526020019081526020016000206005018190555060009250610f1d565b600b60003373ffffffffffffffffffffffffffffffffffffffff1673ffffffffffffffffffffffffffffffffffffffff16815260200190815260200160002060008281526020019081526020016000206005015483610e559190612507565b92506000600b60003373ffffffffffffffffffffffffffffffffffffffff1673ffffffffffffffffffffffffffffffffffffffff1681526020019081526020016000206000838152602001908152602001600020600501819055506001600b60003373ffffffffffffffffffffffffffffffffffffffff1673ffffffffffffffffffffffffffffffffffffffff168152602001908152602001600020600083815260200190815260200160002060060160006101000a81548160ff0219169083151502179055505b5b8080610f29906125a7565b915050610bbd565b50600260009054906101000a900473ffffffffffffffffffffffffffffffffffffffff1673ffffffffffffffffffffffffffffffffffffffff1663a9059cbb33836040518363ffffffff1660e01b8152600401610f8f92919061229f565b602060405180830381600087803b158015610fa957600080fd5b505af1158015610fbd573d6000803e3d6000fd5b505050506040513d601f19601f82011682018060405250810190610fe19190611fd1565b50610ff781600754611e5390919063ffffffff16565b60078190555061105281600960003373ffffffffffffffffffffffffffffffffffffffff1673ffffffffffffffffffffffffffffffffffffffff16815260200190815260200160002060020154611e5390919063ffffffff16565b600960003373ffffffffffffffffffffffffffffffffffffffff1673ffffffffffffffffffffffffffffffffffffffff168152602001908152602001600020600201819055505050565b6000600960008373ffffffffffffffffffffffffffffffffffffffff1673ffffffffffffffffffffffffffffffffffffffff168152602001908152602001600020600101549050919050565b600160009054906101000a900473ffffffffffffffffffffffffffffffffffffffff1681565b600a6020528060005260406000206000915054906101000a900473ffffffffffffffffffffffffffffffffffffffff1681565b611149611e35565b73ffffffffffffffffffffffffffffffffffffffff16611167611263565b73ffffffffffffffffffffffffffffffffffffffff16146111bd576040517f08c379a00000000000000000000000000000000000000000000000000000000081526004016111b490612323565b60405180910390fd5b6111c76000611e69565b565b60085481565b60045481565b6111dd611e35565b73ffffffffffffffffffffffffffffffffffffffff166111fb611263565b73ffffffffffffffffffffffffffffffffffffffff1614611251576040517f08c379a000000000000000000000000000000000000000000000000000000000815260040161124890612323565b60405180910390fd5b81600481905550806003819055505050565b60008060009054906101000a900473ffffffffffffffffffffffffffffffffffffffff16905090565b600b602052816000526040600020602052806000526040600020600091509150508060000154908060010154908060020154908060030154908060040154908060050154908060060160009054906101000a900460ff16908060060160019054906101000a900460ff16905088565b60008060005b600960008573ffffffffffffffffffffffffffffffffffffffff1673ffffffffffffffffffffffffffffffffffffffff1681526020019081526020016000206003015481101561148c57600b60008573ffffffffffffffffffffffffffffffffffffffff1673ffffffffffffffffffffffffffffffffffffffff168152602001908152602001600020600082815260200190815260200160002060060160009054906101000a900460ff1615801561140b575042600b60008673ffffffffffffffffffffffffffffffffffffffff1673ffffffffffffffffffffffffffffffffffffffff168152602001908152602001600020600083815260200190815260200160002060000154105b1561147957611476600b60008673ffffffffffffffffffffffffffffffffffffffff1673ffffffffffffffffffffffffffffffffffffffff16815260200190815260200160002060008381526020019081526020016000206005015483611e5390919063ffffffff16565b91505b8080611484906125a7565b915050611301565b5080915050919050565b6004548110156114db576040517f08c379a00000000000000000000000000000000000000000000000000000000081526004016114d290612303565b60405180910390fd5b600960003373ffffffffffffffffffffffffffffffffffffffff1673ffffffffffffffffffffffffffffffffffffffff16815260200190815260200160002060040160009054906101000a900460ff166115f7576001600960003373ffffffffffffffffffffffffffffffffffffffff1673ffffffffffffffffffffffffffffffffffffffff16815260200190815260200160002060040160006101000a81548160ff02191690831515021790555033600a6000600854815260200190815260200160002060006101000a81548173ffffffffffffffffffffffffffffffffffffffff021916908373ffffffffffffffffffffffffffffffffffffffff160217905550600860008154809291906115f1906125a7565b91905055505b600160009054906101000a900473ffffffffffffffffffffffffffffffffffffffff1673ffffffffffffffffffffffffffffffffffffffff166323b872dd3330846040518463ffffffff1660e01b815260040161165693929190612268565b602060405180830381600087803b15801561167057600080fd5b505af1158015611684573d6000803e3d6000fd5b505050506040513d601f19601f820116820180604052508101906116a89190611fd1565b506000600960003373ffffffffffffffffffffffffffffffffffffffff1673ffffffffffffffffffffffffffffffffffffffff16815260200190815260200160002060030154905061174582600960003373ffffffffffffffffffffffffffffffffffffffff1673ffffffffffffffffffffffffffffffffffffffff16815260200190815260200160002060000154611e5390919063ffffffff16565b600960003373ffffffffffffffffffffffffffffffffffffffff1673ffffffffffffffffffffffffffffffffffffffff168152602001908152602001600020600001819055506117a082600654611e5390919063ffffffff16565b60068190555042600b60003373ffffffffffffffffffffffffffffffffffffffff1673ffffffffffffffffffffffffffffffffffffffff168152602001908152602001600020600083815260200190815260200160002060010181905550611813600d5442611e5390919063ffffffff16565b600b60003373ffffffffffffffffffffffffffffffffffffffff1673ffffffffffffffffffffffffffffffffffffffff16815260200190815260200160002060008381526020019081526020016000206000018190555081600b60003373ffffffffffffffffffffffffffffffffffffffff1673ffffffffffffffffffffffffffffffffffffffff1681526020019081526020016000206000838152602001908152602001600020600201819055506118cb82610616565b600b60003373ffffffffffffffffffffffffffffffffffffffff1673ffffffffffffffffffffffffffffffffffffffff1681526020019081526020016000206000838152602001908152602001600020600301819055506000600b60003373ffffffffffffffffffffffffffffffffffffffff1673ffffffffffffffffffffffffffffffffffffffff168152602001908152602001600020600083815260200190815260200160002060060160016101000a81548160ff0219169083151502179055506000600b60003373ffffffffffffffffffffffffffffffffffffffff1673ffffffffffffffffffffffffffffffffffffffff168152602001908152602001600020600083815260200190815260200160002060060160006101000a81548160ff021916908315150217905550600960003373ffffffffffffffffffffffffffffffffffffffff1673ffffffffffffffffffffffffffffffffffffffff1681526020019081526020016000206003016000815480929190611a4d906125a7565b91905055505050565b60035481565b60075481565b60008060005b600960008573ffffffffffffffffffffffffffffffffffffffff1673ffffffffffffffffffffffffffffffffffffffff16815260200190815260200160002060030154811015611bf357600b60008573ffffffffffffffffffffffffffffffffffffffff1673ffffffffffffffffffffffffffffffffffffffff168152602001908152602001600020600082815260200190815260200160002060060160019054906101000a900460ff16158015611b72575042600b60008673ffffffffffffffffffffffffffffffffffffffff1673ffffffffffffffffffffffffffffffffffffffff168152602001908152602001600020600083815260200190815260200160002060000154105b15611be057611bdd600b60008673ffffffffffffffffffffffffffffffffffffffff1673ffffffffffffffffffffffffffffffffffffffff16815260200190815260200160002060008381526020019081526020016000206004015483611e5390919063ffffffff16565b91505b8080611beb906125a7565b915050611a68565b5080915050919050565b6000600a600083815260200190815260200160002060009054906101000a900473ffffffffffffffffffffffffffffffffffffffff169050919050565b60065481565b600042905090565b60096020528060005260406000206000915090508060000154908060010154908060020154908060030154908060040160009054906101000a900460ff16905085565b611c93611e35565b73ffffffffffffffffffffffffffffffffffffffff16611cb1611263565b73ffffffffffffffffffffffffffffffffffffffff1614611d07576040517f08c379a0000000000000000000000000000000000000000000000000000000008152600401611cfe90612323565b60405180910390fd5b600073ffffffffffffffffffffffffffffffffffffffff168173ffffffffffffffffffffffffffffffffffffffff161415611d77576040517f08c379a0000000000000000000000000000000000000000000000000000000008152600401611d6e906122e3565b60405180910390fd5b611d8081611e69565b50565b600260009054906101000a900473ffffffffffffffffffffffffffffffffffffffff1681565b611db1611e35565b73ffffffffffffffffffffffffffffffffffffffff16611dcf611263565b73ffffffffffffffffffffffffffffffffffffffff1614611e25576040517f08c379a0000000000000000000000000000000000000000000000000000000008152600401611e1c90612323565b60405180910390fd5b80600d8190555050565b600c5481565b600033905090565b60008183611e4b91906124d6565b905092915050565b60008183611e619190612480565b905092915050565b60008060009054906101000a900473ffffffffffffffffffffffffffffffffffffffff169050816000806101000a81548173ffffffffffffffffffffffffffffffffffffffff021916908373ffffffffffffffffffffffffffffffffffffffff1602179055508173ffffffffffffffffffffffffffffffffffffffff168173ffffffffffffffffffffffffffffffffffffffff167f8be0079c531659141344cd1fd0a4f28419497f9722a3daafe3b4186f6b6457e060405160405180910390a35050565b600081359050611f3c8161264e565b92915050565b600081519050611f5181612665565b92915050565b600081359050611f668161267c565b92915050565b600060208284031215611f7e57600080fd5b6000611f8c84828501611f2d565b91505092915050565b60008060408385031215611fa857600080fd5b6000611fb685828601611f2d565b9250506020611fc785828601611f57565b9150509250929050565b600060208284031215611fe357600080fd5b6000611ff184828501611f42565b91505092915050565b60006020828403121561200c57600080fd5b600061201a84828501611f57565b91505092915050565b6000806040838503121561203657600080fd5b600061204485828601611f57565b925050602061205585828601611f57565b9150509250929050565b6120688161253b565b82525050565b6120778161254d565b82525050565b61208681612583565b82525050565b600061209960268361246f565b91507f4f776e61626c653a206e6577206f776e657220697320746865207a65726f206160008301527f64647265737300000000000000000000000000000000000000000000000000006020830152604082019050919050565b60006120ff601e8361246f565b91507f7374616b65206d6f7265207468616e206d696e696d756d20616d6f756e7400006000830152602082019050919050565b600061213f60208361246f565b91507f4f776e61626c653a2063616c6c6572206973206e6f7420746865206f776e65726000830152602082019050919050565b600061217f60388361246f565b91507f616d6f756e74206d757374206265206c657373207468616e20617661696c616260008301527f6c65206d617820756e636c69616d656420616d6f756e742e00000000000000006020830152604082019050919050565b60006121e560358361246f565b91507f616d6f756e74206d757374206265206c657373207468616e20617661696c616260008301527f6c65206d617820756e7374616b6520616d6f756e7400000000000000000000006020830152604082019050919050565b61224781612579565b82525050565b6000602082019050612262600083018461205f565b92915050565b600060608201905061227d600083018661205f565b61228a602083018561205f565b612297604083018461223e565b949350505050565b60006040820190506122b4600083018561205f565b6122c1602083018461223e565b9392505050565b60006020820190506122dd600083018461207d565b92915050565b600060208201905081810360008301526122fc8161208c565b9050919050565b6000602082019050818103600083015261231c816120f2565b9050919050565b6000602082019050818103600083015261233c81612132565b9050919050565b6000602082019050818103600083015261235c81612172565b9050919050565b6000602082019050818103600083015261237c816121d8565b9050919050565b6000602082019050612398600083018461223e565b92915050565b600060a0820190506123b3600083018861223e565b6123c0602083018761223e565b6123cd604083018661223e565b6123da606083018561223e565b6123e7608083018461206e565b9695505050505050565b600061010082019050612407600083018b61223e565b612414602083018a61223e565b612421604083018961223e565b61242e606083018861223e565b61243b608083018761223e565b61244860a083018661223e565b61245560c083018561206e565b61246260e083018461206e565b9998505050505050505050565b600082825260208201905092915050565b600061248b82612579565b915061249683612579565b9250827fffffffffffffffffffffffffffffffffffffffffffffffffffffffffffffffff038211156124cb576124ca6125f0565b5b828201905092915050565b60006124e182612579565b91506124ec83612579565b9250826124fc576124fb61261f565b5b828204905092915050565b600061251282612579565b915061251d83612579565b9250828210156125305761252f6125f0565b5b828203905092915050565b600061254682612559565b9050919050565b60008115159050919050565b600073ffffffffffffffffffffffffffffffffffffffff82169050919050565b6000819050919050565b600061258e82612595565b9050919050565b60006125a082612559565b9050919050565b60006125b282612579565b91507fffffffffffffffffffffffffffffffffffffffffffffffffffffffffffffffff8214156125e5576125e46125f0565b5b600182019050919050565b7f4e487b7100000000000000000000000000000000000000000000000000000000600052601160045260246000fd5b7f4e487b7100000000000000000000000000000000000000000000000000000000600052601260045260246000fd5b6126578161253b565b811461266257600080fd5b50565b61266e8161254d565b811461267957600080fd5b50565b61268581612579565b811461269057600080fd5b5056fea2646970667358221220fe5b1ebb280a0a2e24f39c44a4445e665ee33d6b21360f46e9800da638bd58bf64736f6c63430008000033",
  "linkReferences": {},
  "deployedLinkReferences": {}
}