{
  "_format": "hh-sol-artifact-1",
  "contractName": "TKN_test",
  "sourceName": "contracts/TKN_test.sol",
  "abi": [
    {
      "inputs": [
        {
          "internalType": "address",
          "name": "_stakingToken",
          "type": "address"
        },
        {
          "internalType": "address",
          "name": "_rewardingToken",
          "type": "address"
        }
      ],
      "stateMutability": "nonpayable",
      "type": "constructor"
    },
    {
      "anonymous": false,
      "inputs": [
        {
          "indexed": true,
          "internalType": "address",
          "name": "previousOwner",
          "type": "address"
        },
        {
          "indexed": true,
          "internalType": "address",
          "name": "newOwner",
          "type": "address"
        }
      ],
      "name": "OwnershipTransferred",
      "type": "event"
    },
    {
      "inputs": [
        {
          "internalType": "address",
          "name": "",
          "type": "address"
        }
      ],
      "name": "Stakers",
      "outputs": [
        {
          "internalType": "uint256",
          "name": "totalStakedTokenUser",
          "type": "uint256"
        },
        {
          "internalType": "uint256",
          "name": "totalUnstakedTokenUser",
          "type": "uint256"
        },
        {
          "internalType": "uint256",
          "name": "totalClaimedRewardTokenUser",
          "type": "uint256"
        },
        {
          "internalType": "uint256",
          "name": "stakeCount",
          "type": "uint256"
        },
        {
          "internalType": "bool",
          "name": "alreadyExists",
          "type": "bool"
        }
      ],
      "stateMutability": "view",
      "type": "function"
    },
    {
      "inputs": [
        {
          "internalType": "uint256",
          "name": "",
          "type": "uint256"
        }
      ],
      "name": "StakersID",
      "outputs": [
        {
          "internalType": "address",
          "name": "",
          "type": "address"
        }
      ],
      "stateMutability": "view",
      "type": "function"
    },
    {
      "inputs": [
        {
          "internalType": "uint256",
          "name": "_amount",
          "type": "uint256"
        }
      ],
      "name": "claim",
      "outputs": [],
      "stateMutability": "nonpayable",
      "type": "function"
    },
    {
      "inputs": [],
      "name": "duration",
      "outputs": [
        {
          "internalType": "uint256",
          "name": "",
          "type": "uint256"
        }
      ],
      "stateMutability": "view",
      "type": "function"
    },
    {
      "inputs": [
        {
          "internalType": "uint256",
          "name": "_index",
          "type": "uint256"
        }
      ],
      "name": "getIndexStaker",
      "outputs": [
        {
          "internalType": "address",
          "name": "",
          "type": "address"
        }
      ],
      "stateMutability": "view",
      "type": "function"
    },
    {
      "inputs": [
        {
          "internalType": "address",
          "name": "_index",
          "type": "address"
        }
      ],
      "name": "getIndexStakerStakeCount",
      "outputs": [
        {
          "internalType": "uint256",
          "name": "",
          "type": "uint256"
        }
      ],
      "stateMutability": "view",
      "type": "function"
    },
    {
      "inputs": [
        {
          "internalType": "address",
          "name": "_index",
          "type": "address"
        }
      ],
      "name": "getIndexStakerUnstakedToken",
      "outputs": [
        {
          "internalType": "uint256",
          "name": "",
          "type": "uint256"
        }
      ],
      "stateMutability": "view",
      "type": "function"
    },
    {
      "inputs": [
        {
          "internalType": "address",
          "name": "user",
          "type": "address"
        }
      ],
      "name": "getMaxUncliamedAmount",
      "outputs": [
        {
          "internalType": "uint256",
          "name": "",
          "type": "uint256"
        }
      ],
      "stateMutability": "view",
      "type": "function"
    },
    {
      "inputs": [
        {
          "internalType": "address",
          "name": "user",
          "type": "address"
        }
      ],
      "name": "getMaxUnstakeAmount",
      "outputs": [
        {
          "internalType": "uint256",
          "name": "",
          "type": "uint256"
        }
      ],
      "stateMutability": "view",
      "type": "function"
    },
    {
      "inputs": [],
      "name": "maxStakeableToken",
      "outputs": [
        {
          "internalType": "uint256",
          "name": "",
          "type": "uint256"
        }
      ],
      "stateMutability": "view",
      "type": "function"
    },
    {
      "inputs": [],
      "name": "minStakeableToken",
      "outputs": [
        {
          "internalType": "uint256",
          "name": "",
          "type": "uint256"
        }
      ],
      "stateMutability": "view",
      "type": "function"
    },
    {
      "inputs": [],
      "name": "name",
      "outputs": [
        {
          "internalType": "string",
          "name": "",
          "type": "string"
        }
      ],
      "stateMutability": "view",
      "type": "function"
    },
    {
      "inputs": [],
      "name": "owner",
      "outputs": [
        {
          "internalType": "address",
          "name": "",
          "type": "address"
        }
      ],
      "stateMutability": "view",
      "type": "function"
    },
    {
      "inputs": [],
      "name": "percentDivider",
      "outputs": [
        {
          "internalType": "uint256",
          "name": "",
          "type": "uint256"
        }
      ],
      "stateMutability": "view",
      "type": "function"
    },
    {
      "inputs": [],
      "name": "renounceOwnership",
      "outputs": [],
      "stateMutability": "nonpayable",
      "type": "function"
    },
    {
      "inputs": [],
      "name": "rewardToken",
      "outputs": [
        {
          "internalType": "contract ERC20",
          "name": "",
          "type": "address"
        }
      ],
      "stateMutability": "view",
      "type": "function"
    },
    {
      "inputs": [
        {
          "internalType": "uint256",
          "name": "_duration",
          "type": "uint256"
        }
      ],
      "name": "setStakeDuration",
      "outputs": [],
      "stateMutability": "nonpayable",
      "type": "function"
    },
    {
      "inputs": [
        {
          "internalType": "uint256",
          "name": "_min",
          "type": "uint256"
        },
        {
          "internalType": "uint256",
          "name": "_max",
          "type": "uint256"
        }
      ],
      "name": "setStakeLimits",
      "outputs": [],
      "stateMutability": "nonpayable",
      "type": "function"
    },
    {
      "inputs": [
        {
          "internalType": "uint256",
          "name": "_amount",
          "type": "uint256"
        }
      ],
      "name": "stake",
      "outputs": [],
      "stateMutability": "nonpayable",
      "type": "function"
    },
    {
      "inputs": [],
      "name": "stakeToken",
      "outputs": [
        {
          "internalType": "contract ERC20",
          "name": "",
          "type": "address"
        }
      ],
      "stateMutability": "view",
      "type": "function"
    },
    {
      "inputs": [
        {
          "internalType": "address",
          "name": "",
          "type": "address"
        },
        {
          "internalType": "uint256",
          "name": "",
          "type": "uint256"
        }
      ],
      "name": "stakersRecord",
      "outputs": [
        {
          "internalType": "uint256",
          "name": "unstakeTime",
          "type": "uint256"
        },
        {
          "internalType": "uint256",
          "name": "stakeTime",
          "type": "uint256"
        },
        {
          "internalType": "uint256",
          "name": "amount",
          "type": "uint256"
        },
        {
          "internalType": "uint256",
          "name": "reward",
          "type": "uint256"
        },
        {
          "internalType": "uint256",
          "name": "availableUnstakedAmount",
          "type": "uint256"
        },
        {
          "internalType": "uint256",
          "name": "availableUnclaimedReward",
          "type": "uint256"
        },
        {
          "internalType": "bool",
          "name": "withdrawn",
          "type": "bool"
        },
        {
          "internalType": "bool",
          "name": "unstaked",
          "type": "bool"
        }
      ],
      "stateMutability": "view",
      "type": "function"
    },
    {
      "inputs": [],
      "name": "totalClaimedRewardToken",
      "outputs": [
        {
          "internalType": "uint256",
          "name": "",
          "type": "uint256"
        }
      ],
      "stateMutability": "view",
      "type": "function"
    },
    {
      "inputs": [],
      "name": "totalStakedToken",
      "outputs": [
        {
          "internalType": "uint256",
          "name": "",
          "type": "uint256"
        }
      ],
      "stateMutability": "view",
      "type": "function"
    },
    {
      "inputs": [],
      "name": "totalStakers",
      "outputs": [
        {
          "internalType": "uint256",
          "name": "",
          "type": "uint256"
        }
      ],
      "stateMutability": "view",
      "type": "function"
    },
    {
      "inputs": [],
      "name": "totalUnStakedToken",
      "outputs": [
        {
          "internalType": "uint256",
          "name": "",
          "type": "uint256"
        }
      ],
      "stateMutability": "view",
      "type": "function"
    },
    {
      "inputs": [
        {
          "internalType": "address",
          "name": "newOwner",
          "type": "address"
        }
      ],
      "name": "transferOwnership",
      "outputs": [],
      "stateMutability": "nonpayable",
      "type": "function"
    },
    {
      "inputs": [
        {
          "internalType": "uint256",
          "name": "_amount",
          "type": "uint256"
        }
      ],
      "name": "unstake",
      "outputs": [],
      "stateMutability": "nonpayable",
      "type": "function"
    }
  ],
  "bytecode": "0x60806040526040518060400160405280600881526020017f544b4e5f746573740000000000000000000000000000000000000000000000008152506001908051906020019062000051929190620002bf565b506014600b553480156200006457600080fd5b5060405162002d8638038062002d8683398181016040528101906200008a91906200039d565b620000aa6200009e620001f360201b60201c565b620001fb60201b60201c565b81600260006101000a81548173ffffffffffffffffffffffffffffffffffffffff021916908373ffffffffffffffffffffffffffffffffffffffff16021790555080600360006101000a81548173ffffffffffffffffffffffffffffffffffffffff021916908373ffffffffffffffffffffffffffffffffffffffff160217905550600260009054906101000a900473ffffffffffffffffffffffffffffffffffffffff1673ffffffffffffffffffffffffffffffffffffffff166318160ddd6040518163ffffffff1660e01b815260040160206040518083038186803b1580156200019557600080fd5b505afa158015620001aa573d6000803e3d6000fd5b505050506040513d601f19601f82011682018060405250810190620001d09190620003de565b6004819055506509184e72a0006005819055506064600a819055505050620004e1565b600033905090565b60008060009054906101000a900473ffffffffffffffffffffffffffffffffffffffff169050816000806101000a81548173ffffffffffffffffffffffffffffffffffffffff021916908373ffffffffffffffffffffffffffffffffffffffff1602179055508173ffffffffffffffffffffffffffffffffffffffff168173ffffffffffffffffffffffffffffffffffffffff167f8be0079c531659141344cd1fd0a4f28419497f9722a3daafe3b4186f6b6457e060405160405180910390a35050565b828054620002cd9062000448565b90600052602060002090601f016020900481019282620002f157600085556200033d565b82601f106200030c57805160ff19168380011785556200033d565b828001600101855582156200033d579182015b828111156200033c5782518255916020019190600101906200031f565b5b5090506200034c919062000350565b5090565b5b808211156200036b57600081600090555060010162000351565b5090565b6000815190506200038081620004ad565b92915050565b6000815190506200039781620004c7565b92915050565b60008060408385031215620003b157600080fd5b6000620003c1858286016200036f565b9250506020620003d4858286016200036f565b9150509250929050565b600060208284031215620003f157600080fd5b6000620004018482850162000386565b91505092915050565b600062000417826200041e565b9050919050565b600073ffffffffffffffffffffffffffffffffffffffff82169050919050565b6000819050919050565b600060028204905060018216806200046157607f821691505b602082108114156200047857620004776200047e565b5b50919050565b7f4e487b7100000000000000000000000000000000000000000000000000000000600052602260045260246000fd5b620004b8816200040a565b8114620004c457600080fd5b50565b620004d2816200043e565b8114620004de57600080fd5b50565b61289580620004f16000396000f3fe608060405234801561001057600080fd5b50600436106101a95760003560e01c80639845db70116100f9578063cb6d8ee611610097578063f2fde38b11610071578063f2fde38b146104df578063f7c618c1146104fb578063f978be1a14610519578063fe6f1b0514610535576101a9565b8063cb6d8ee61461046f578063d287de4e1461048d578063ede85eb7146104ab576101a9565b8063b10be8af116100d3578063b10be8af146103c1578063c0372838146103f1578063c1f5ee381461040f578063c942e6ef1461043f576101a9565b80639845db7014610350578063a694fc3a14610387578063b067354d146103a3576101a9565b806351ed6a3011610166578063869890381161014057806386989038146102da578063886f2fae146102f85780638c9bd1b5146103165780638da5cb5b14610332576101a9565b806351ed6a301461028257806364949357146102a0578063715018a6146102d0576101a9565b806306fdde03146101ae5780630fb5a6b4146101cc5780632e17de78146101ea578063379607f514610206578063492ffa931461022257806351b35ab314610252575b600080fd5b6101b6610553565b6040516101c391906123dd565b60405180910390f35b6101d46105e1565b6040516101e1919061249f565b60405180910390f35b61020460048036038101906101ff91906120bb565b6105e7565b005b610220600480360381019061021b91906120bb565b610b19565b005b61023c6004803603810190610237919061202d565b61104b565b604051610249919061249f565b60405180910390f35b61026c6004803603810190610267919061202d565b6111e2565b604051610279919061249f565b60405180910390f35b61028a61122e565b60405161029791906123c2565b60405180910390f35b6102ba60048036038101906102b591906120bb565b611254565b6040516102c79190612347565b60405180910390f35b6102d8611287565b005b6102e261130f565b6040516102ef919061249f565b60405180910390f35b610300611315565b60405161030d919061249f565b60405180910390f35b610330600480360381019061032b91906120e4565b61131b565b005b61033a6113a9565b6040516103479190612347565b60405180910390f35b61036a60048036038101906103659190612056565b6113d2565b60405161037e98979695949392919061250d565b60405180910390f35b6103a1600480360381019061039c91906120bb565b611441565b005b6103ab611ad1565b6040516103b8919061249f565b60405180910390f35b6103db60048036038101906103d6919061202d565b611ad7565b6040516103e8919061249f565b60405180910390f35b6103f9611c6e565b604051610406919061249f565b60405180910390f35b6104296004803603810190610424919061202d565b611c74565b604051610436919061249f565b60405180910390f35b610459600480360381019061045491906120bb565b611cc0565b6040516104669190612347565b60405180910390f35b610477611cfd565b604051610484919061249f565b60405180910390f35b610495611d03565b6040516104a2919061249f565b60405180910390f35b6104c560048036038101906104c0919061202d565b611d09565b6040516104d69594939291906124ba565b60405180910390f35b6104f960048036038101906104f4919061202d565b611d4c565b005b610503611e44565b60405161051091906123c2565b60405180910390f35b610533600480360381019061052e91906120bb565b611e6a565b005b61053d611ef0565b60405161054a919061249f565b60405180910390f35b6001805461056090612701565b80601f016020809104026020016040519081016040528092919081815260200182805461058c90612701565b80156105d95780601f106105ae576101008083540402835291602001916105d9565b820191906000526020600020905b8154815290600101906020018083116105bc57829003601f168201915b505050505081565b600b5481565b6105f033611ad7565b811115610632576040517f08c379a00000000000000000000000000000000000000000000000000000000081526004016106299061247f565b60405180910390fd5b600081905060005b600c60003373ffffffffffffffffffffffffffffffffffffffff1673ffffffffffffffffffffffffffffffffffffffff168152602001908152602001600020600301548110156109ae57600e60003373ffffffffffffffffffffffffffffffffffffffff1673ffffffffffffffffffffffffffffffffffffffff168152602001908152602001600020600082815260200190815260200160002060060160019054906101000a900460ff16806106f05750600083145b156106fa5761099b565b42600e60003373ffffffffffffffffffffffffffffffffffffffff1673ffffffffffffffffffffffffffffffffffffffff168152602001908152602001600020600083815260200190815260200160002060000154106107595761099b565b82600e60003373ffffffffffffffffffffffffffffffffffffffff1673ffffffffffffffffffffffffffffffffffffffff16815260200190815260200160002060008381526020019081526020016000206004015411156108735782600e60003373ffffffffffffffffffffffffffffffffffffffff1673ffffffffffffffffffffffffffffffffffffffff168152602001908152602001600020600083815260200190815260200160002060040154610813919061262e565b600e60003373ffffffffffffffffffffffffffffffffffffffff1673ffffffffffffffffffffffffffffffffffffffff1681526020019081526020016000206000838152602001908152602001600020600401819055506000925061099a565b600e60003373ffffffffffffffffffffffffffffffffffffffff1673ffffffffffffffffffffffffffffffffffffffff168152602001908152602001600020600082815260200190815260200160002060040154836108d2919061262e565b92506000600e60003373ffffffffffffffffffffffffffffffffffffffff1673ffffffffffffffffffffffffffffffffffffffff1681526020019081526020016000206000838152602001908152602001600020600401819055506001600e60003373ffffffffffffffffffffffffffffffffffffffff1673ffffffffffffffffffffffffffffffffffffffff168152602001908152602001600020600083815260200190815260200160002060060160016101000a81548160ff0219169083151502179055505b5b80806109a690612733565b91505061063a565b50600260009054906101000a900473ffffffffffffffffffffffffffffffffffffffff1673ffffffffffffffffffffffffffffffffffffffff1663a9059cbb33836040518363ffffffff1660e01b8152600401610a0c929190612399565b602060405180830381600087803b158015610a2657600080fd5b505af1158015610a3a573d6000803e3d6000fd5b505050506040513d601f19601f82011682018060405250810190610a5e9190612092565b50610a7481600654611ef690919063ffffffff16565b600681905550610acf81600c60003373ffffffffffffffffffffffffffffffffffffffff1673ffffffffffffffffffffffffffffffffffffffff16815260200190815260200160002060010154611ef690919063ffffffff16565b600c60003373ffffffffffffffffffffffffffffffffffffffff1673ffffffffffffffffffffffffffffffffffffffff168152602001908152602001600020600101819055505050565b610b223361104b565b811115610b64576040517f08c379a0000000000000000000000000000000000000000000000000000000008152600401610b5b9061241f565b60405180910390fd5b600081905060005b600c60003373ffffffffffffffffffffffffffffffffffffffff1673ffffffffffffffffffffffffffffffffffffffff16815260200190815260200160002060030154811015610ee057600e60003373ffffffffffffffffffffffffffffffffffffffff1673ffffffffffffffffffffffffffffffffffffffff168152602001908152602001600020600082815260200190815260200160002060060160009054906101000a900460ff1680610c225750600083145b15610c2c57610ecd565b42600e60003373ffffffffffffffffffffffffffffffffffffffff1673ffffffffffffffffffffffffffffffffffffffff16815260200190815260200160002060008381526020019081526020016000206000015410610c8b57610ecd565b82600e60003373ffffffffffffffffffffffffffffffffffffffff1673ffffffffffffffffffffffffffffffffffffffff1681526020019081526020016000206000838152602001908152602001600020600501541115610da55782600e60003373ffffffffffffffffffffffffffffffffffffffff1673ffffffffffffffffffffffffffffffffffffffff168152602001908152602001600020600083815260200190815260200160002060050154610d45919061262e565b600e60003373ffffffffffffffffffffffffffffffffffffffff1673ffffffffffffffffffffffffffffffffffffffff16815260200190815260200160002060008381526020019081526020016000206005018190555060009250610ecc565b600e60003373ffffffffffffffffffffffffffffffffffffffff1673ffffffffffffffffffffffffffffffffffffffff16815260200190815260200160002060008281526020019081526020016000206005015483610e04919061262e565b92506000600e60003373ffffffffffffffffffffffffffffffffffffffff1673ffffffffffffffffffffffffffffffffffffffff1681526020019081526020016000206000838152602001908152602001600020600501819055506001600e60003373ffffffffffffffffffffffffffffffffffffffff1673ffffffffffffffffffffffffffffffffffffffff168152602001908152602001600020600083815260200190815260200160002060060160006101000a81548160ff0219169083151502179055505b5b8080610ed890612733565b915050610b6c565b50600360009054906101000a900473ffffffffffffffffffffffffffffffffffffffff1673ffffffffffffffffffffffffffffffffffffffff1663a9059cbb33836040518363ffffffff1660e01b8152600401610f3e929190612399565b602060405180830381600087803b158015610f5857600080fd5b505af1158015610f6c573d6000803e3d6000fd5b505050506040513d601f19601f82011682018060405250810190610f909190612092565b50610fa681600854611ef690919063ffffffff16565b60088190555061100181600c60003373ffffffffffffffffffffffffffffffffffffffff1673ffffffffffffffffffffffffffffffffffffffff16815260200190815260200160002060020154611ef690919063ffffffff16565b600c60003373ffffffffffffffffffffffffffffffffffffffff1673ffffffffffffffffffffffffffffffffffffffff168152602001908152602001600020600201819055505050565b60008060005b600c60008573ffffffffffffffffffffffffffffffffffffffff1673ffffffffffffffffffffffffffffffffffffffff168152602001908152602001600020600301548110156111d857600e60008573ffffffffffffffffffffffffffffffffffffffff1673ffffffffffffffffffffffffffffffffffffffff168152602001908152602001600020600082815260200190815260200160002060060160009054906101000a900460ff166111c55742600e60008673ffffffffffffffffffffffffffffffffffffffff1673ffffffffffffffffffffffffffffffffffffffff16815260200190815260200160002060008381526020019081526020016000206000015410156111c4576111c1600e60008673ffffffffffffffffffffffffffffffffffffffff1673ffffffffffffffffffffffffffffffffffffffff16815260200190815260200160002060008381526020019081526020016000206005015483611ef690919063ffffffff16565b91505b5b80806111d090612733565b915050611051565b5080915050919050565b6000600c60008373ffffffffffffffffffffffffffffffffffffffff1673ffffffffffffffffffffffffffffffffffffffff168152602001908152602001600020600101549050919050565b600260009054906101000a900473ffffffffffffffffffffffffffffffffffffffff1681565b600d6020528060005260406000206000915054906101000a900473ffffffffffffffffffffffffffffffffffffffff1681565b61128f611f0c565b73ffffffffffffffffffffffffffffffffffffffff166112ad6113a9565b73ffffffffffffffffffffffffffffffffffffffff1614611303576040517f08c379a00000000000000000000000000000000000000000000000000000000081526004016112fa9061245f565b60405180910390fd5b61130d6000611f14565b565b60095481565b60055481565b611323611f0c565b73ffffffffffffffffffffffffffffffffffffffff166113416113a9565b73ffffffffffffffffffffffffffffffffffffffff1614611397576040517f08c379a000000000000000000000000000000000000000000000000000000000815260040161138e9061245f565b60405180910390fd5b81600581905550806004819055505050565b60008060009054906101000a900473ffffffffffffffffffffffffffffffffffffffff16905090565b600e602052816000526040600020602052806000526040600020600091509150508060000154908060010154908060020154908060030154908060040154908060050154908060060160009054906101000a900460ff16908060060160019054906101000a900460ff16905088565b600554811015611486576040517f08c379a000000000000000000000000000000000000000000000000000000000815260040161147d9061243f565b60405180910390fd5b600c60003373ffffffffffffffffffffffffffffffffffffffff1673ffffffffffffffffffffffffffffffffffffffff16815260200190815260200160002060040160009054906101000a900460ff166115a2576001600c60003373ffffffffffffffffffffffffffffffffffffffff1673ffffffffffffffffffffffffffffffffffffffff16815260200190815260200160002060040160006101000a81548160ff02191690831515021790555033600d6000600954815260200190815260200160002060006101000a81548173ffffffffffffffffffffffffffffffffffffffff021916908373ffffffffffffffffffffffffffffffffffffffff1602179055506009600081548092919061159c90612733565b91905055505b600260009054906101000a900473ffffffffffffffffffffffffffffffffffffffff1673ffffffffffffffffffffffffffffffffffffffff166323b872dd3330846040518463ffffffff1660e01b815260040161160193929190612362565b602060405180830381600087803b15801561161b57600080fd5b505af115801561162f573d6000803e3d6000fd5b505050506040513d601f19601f820116820180604052508101906116539190612092565b506000600c60003373ffffffffffffffffffffffffffffffffffffffff1673ffffffffffffffffffffffffffffffffffffffff1681526020019081526020016000206003015490506116f082600c60003373ffffffffffffffffffffffffffffffffffffffff1673ffffffffffffffffffffffffffffffffffffffff16815260200190815260200160002060000154611ef690919063ffffffff16565b600c60003373ffffffffffffffffffffffffffffffffffffffff1673ffffffffffffffffffffffffffffffffffffffff1681526020019081526020016000206000018190555061174b82600754611ef690919063ffffffff16565b60078190555042600e60003373ffffffffffffffffffffffffffffffffffffffff1673ffffffffffffffffffffffffffffffffffffffff1681526020019081526020016000206000838152602001908152602001600020600101819055506117be600b5442611ef690919063ffffffff16565b600e60003373ffffffffffffffffffffffffffffffffffffffff1673ffffffffffffffffffffffffffffffffffffffff16815260200190815260200160002060008381526020019081526020016000206000018190555081600e60003373ffffffffffffffffffffffffffffffffffffffff1673ffffffffffffffffffffffffffffffffffffffff168152602001908152602001600020600083815260200190815260200160002060020181905550611882600a5483611fd890919063ffffffff16565b600e60003373ffffffffffffffffffffffffffffffffffffffff1673ffffffffffffffffffffffffffffffffffffffff16815260200190815260200160002060008381526020019081526020016000206003018190555081600e60003373ffffffffffffffffffffffffffffffffffffffff1673ffffffffffffffffffffffffffffffffffffffff168152602001908152602001600020600083815260200190815260200160002060040181905550611946600a5483611fd890919063ffffffff16565b600e60003373ffffffffffffffffffffffffffffffffffffffff1673ffffffffffffffffffffffffffffffffffffffff1681526020019081526020016000206000838152602001908152602001600020600501819055506000600e60003373ffffffffffffffffffffffffffffffffffffffff1673ffffffffffffffffffffffffffffffffffffffff168152602001908152602001600020600083815260200190815260200160002060060160016101000a81548160ff0219169083151502179055506000600e60003373ffffffffffffffffffffffffffffffffffffffff1673ffffffffffffffffffffffffffffffffffffffff168152602001908152602001600020600083815260200190815260200160002060060160006101000a81548160ff021916908315150217905550600c60003373ffffffffffffffffffffffffffffffffffffffff1673ffffffffffffffffffffffffffffffffffffffff1681526020019081526020016000206003016000815480929190611ac890612733565b91905055505050565b60045481565b60008060005b600c60008573ffffffffffffffffffffffffffffffffffffffff1673ffffffffffffffffffffffffffffffffffffffff16815260200190815260200160002060030154811015611c6457600e60008573ffffffffffffffffffffffffffffffffffffffff1673ffffffffffffffffffffffffffffffffffffffff168152602001908152602001600020600082815260200190815260200160002060060160019054906101000a900460ff16611c515742600e60008673ffffffffffffffffffffffffffffffffffffffff1673ffffffffffffffffffffffffffffffffffffffff1681526020019081526020016000206000838152602001908152602001600020600001541015611c5057611c4d600e60008673ffffffffffffffffffffffffffffffffffffffff1673ffffffffffffffffffffffffffffffffffffffff16815260200190815260200160002060008381526020019081526020016000206004015483611ef690919063ffffffff16565b91505b5b8080611c5c90612733565b915050611add565b5080915050919050565b60085481565b6000600c60008373ffffffffffffffffffffffffffffffffffffffff1673ffffffffffffffffffffffffffffffffffffffff168152602001908152602001600020600301549050919050565b6000600d600083815260200190815260200160002060009054906101000a900473ffffffffffffffffffffffffffffffffffffffff169050919050565b60075481565b60065481565b600c6020528060005260406000206000915090508060000154908060010154908060020154908060030154908060040160009054906101000a900460ff16905085565b611d54611f0c565b73ffffffffffffffffffffffffffffffffffffffff16611d726113a9565b73ffffffffffffffffffffffffffffffffffffffff1614611dc8576040517f08c379a0000000000000000000000000000000000000000000000000000000008152600401611dbf9061245f565b60405180910390fd5b600073ffffffffffffffffffffffffffffffffffffffff168173ffffffffffffffffffffffffffffffffffffffff161415611e38576040517f08c379a0000000000000000000000000000000000000000000000000000000008152600401611e2f906123ff565b60405180910390fd5b611e4181611f14565b50565b600360009054906101000a900473ffffffffffffffffffffffffffffffffffffffff1681565b611e72611f0c565b73ffffffffffffffffffffffffffffffffffffffff16611e906113a9565b73ffffffffffffffffffffffffffffffffffffffff1614611ee6576040517f08c379a0000000000000000000000000000000000000000000000000000000008152600401611edd9061245f565b60405180910390fd5b80600b8190555050565b600a5481565b60008183611f0491906125a7565b905092915050565b600033905090565b60008060009054906101000a900473ffffffffffffffffffffffffffffffffffffffff169050816000806101000a81548173ffffffffffffffffffffffffffffffffffffffff021916908373ffffffffffffffffffffffffffffffffffffffff1602179055508173ffffffffffffffffffffffffffffffffffffffff168173ffffffffffffffffffffffffffffffffffffffff167f8be0079c531659141344cd1fd0a4f28419497f9722a3daafe3b4186f6b6457e060405160405180910390a35050565b60008183611fe691906125fd565b905092915050565b600081359050611ffd8161281a565b92915050565b60008151905061201281612831565b92915050565b60008135905061202781612848565b92915050565b60006020828403121561203f57600080fd5b600061204d84828501611fee565b91505092915050565b6000806040838503121561206957600080fd5b600061207785828601611fee565b925050602061208885828601612018565b9150509250929050565b6000602082840312156120a457600080fd5b60006120b284828501612003565b91505092915050565b6000602082840312156120cd57600080fd5b60006120db84828501612018565b91505092915050565b600080604083850312156120f757600080fd5b600061210585828601612018565b925050602061211685828601612018565b9150509250929050565b61212981612662565b82525050565b61213881612674565b82525050565b612147816126aa565b82525050565b60006121588261258b565b6121628185612596565b93506121728185602086016126ce565b61217b81612809565b840191505092915050565b6000612193602683612596565b91507f4f776e61626c653a206e6577206f776e657220697320746865207a65726f206160008301527f64647265737300000000000000000000000000000000000000000000000000006020830152604082019050919050565b60006121f9603483612596565b91507f616d6f756e74206d757374206265206c657373207468616e20617661696c616260008301527f6c65206d617820636c61696d6564206d6f756e740000000000000000000000006020830152604082019050919050565b600061225f601e83612596565b91507f7374616b65206d6f7265207468616e206d696e696d756d20616d6f756e7400006000830152602082019050919050565b600061229f602083612596565b91507f4f776e61626c653a2063616c6c6572206973206e6f7420746865206f776e65726000830152602082019050919050565b60006122df603583612596565b91507f616d6f756e74206d757374206265206c657373207468616e20617661696c616260008301527f6c65206d617820756e7374616b6520616d6f756e7400000000000000000000006020830152604082019050919050565b612341816126a0565b82525050565b600060208201905061235c6000830184612120565b92915050565b60006060820190506123776000830186612120565b6123846020830185612120565b6123916040830184612338565b949350505050565b60006040820190506123ae6000830185612120565b6123bb6020830184612338565b9392505050565b60006020820190506123d7600083018461213e565b92915050565b600060208201905081810360008301526123f7818461214d565b905092915050565b6000602082019050818103600083015261241881612186565b9050919050565b60006020820190508181036000830152612438816121ec565b9050919050565b6000602082019050818103600083015261245881612252565b9050919050565b6000602082019050818103600083015261247881612292565b9050919050565b60006020820190508181036000830152612498816122d2565b9050919050565b60006020820190506124b46000830184612338565b92915050565b600060a0820190506124cf6000830188612338565b6124dc6020830187612338565b6124e96040830186612338565b6124f66060830185612338565b612503608083018461212f565b9695505050505050565b600061010082019050612523600083018b612338565b612530602083018a612338565b61253d6040830189612338565b61254a6060830188612338565b6125576080830187612338565b61256460a0830186612338565b61257160c083018561212f565b61257e60e083018461212f565b9998505050505050505050565b600081519050919050565b600082825260208201905092915050565b60006125b2826126a0565b91506125bd836126a0565b9250827fffffffffffffffffffffffffffffffffffffffffffffffffffffffffffffffff038211156125f2576125f161277c565b5b828201905092915050565b6000612608826126a0565b9150612613836126a0565b925082612623576126226127ab565b5b828204905092915050565b6000612639826126a0565b9150612644836126a0565b9250828210156126575761265661277c565b5b828203905092915050565b600061266d82612680565b9050919050565b60008115159050919050565b600073ffffffffffffffffffffffffffffffffffffffff82169050919050565b6000819050919050565b60006126b5826126bc565b9050919050565b60006126c782612680565b9050919050565b60005b838110156126ec5780820151818401526020810190506126d1565b838111156126fb576000848401525b50505050565b6000600282049050600182168061271957607f821691505b6020821081141561272d5761272c6127da565b5b50919050565b600061273e826126a0565b91507fffffffffffffffffffffffffffffffffffffffffffffffffffffffffffffffff8214156127715761277061277c565b5b600182019050919050565b7f4e487b7100000000000000000000000000000000000000000000000000000000600052601160045260246000fd5b7f4e487b7100000000000000000000000000000000000000000000000000000000600052601260045260246000fd5b7f4e487b7100000000000000000000000000000000000000000000000000000000600052602260045260246000fd5b6000601f19601f8301169050919050565b61282381612662565b811461282e57600080fd5b50565b61283a81612674565b811461284557600080fd5b50565b612851816126a0565b811461285c57600080fd5b5056fea2646970667358221220e087c03422768e1e96ae9433f2b98d604ed497ef100b910d08091d57e811c72064736f6c63430008000033",
  "linkReferences": {},
  "deployedLinkReferences": {}
}